:020000040000FA
:090000000200758103E4F52122E0
:06000B0081067521802230
:0600130081097521FE22A7
:06001B00810C7521812219
:06002300810F752103228C
:06002B00811275D40722CA
:060033008115E4F5A9228D
:0E003B008118854A0C854B0DE4F54AF54B22E1
:05004B00811EC1000050
:02005300812109
:02005B008124FE
:1000630081277597DE7597AD2275E34075E104220C
:10007300812D787FE4F6D8FD7581700200BC020102
:100083007CE493A3F8E493A34003F68001F208DF32
:10009300F48029E493A3F85407240CC8C333C4544D
:1000A3000F4420C8834004F456800146F6DFE48001
:1000B3000B010204081020408090004DE47E019360
:1000C30060BCA3FF543F30E509541FFEE493A360D3
:1000D300010ECF54C025E060A840B8E493A3FAE42E
:1000E30093A3F8E493A3C8C582C8CAC583CAF0A37F
:1000F300C8C582C8CAC583CADFE9DEE780BE30C08F
:100103007720C26CE5C054F0602124F0603A24D01B
:10011300603C24F0604E2430704EC2C5750E0175EC
:100123000F01D2C1E5C230E04D802DE50FC3942805
:100133007448500B250FF8A6C2050FD2C18037258E
:100143000FF8A6C2D200802EC2C4D200802830C1CC
:1001530025E50ED39428501E7420250EF8E6F5C22B
:10016300050E8012C2C4800E53C17F43C18080003C
:10017300C2C5C2C4D2C1C2C022120387120239202F
:10018300000512010180F8C200E54924FB601C143C
:10019300601E14602014602224FD602814602A2449
:1001A3000C703512000575EF1280D412033080CF26
:1001B3001201E080CA1202AB80C5120277501412FA
:1001C300000580BB12002580B61202775005120489
:1001D3000080AC12000D80A712001580A2750B4F92
:1001E300854C09854D08854E0A12003DAF0A7E00F5
:1001F300E509250ACFEE3508CF24FFCF34FFFE12E1
:100203000350C0D0AF09AE08120350D0F082F750AC
:1002130021AF0A150AEF6017A80BE6FDAF09AE0878
:100223001202DE050B0509E50970E6050880E20206
:10023300000512001D22209604E4FC80027C0120AC
:100243009504E4FD80027D01209404E4FE80027E97
:1002530001209304E4FF80027F01ED25E04CFBEED7
:1002630025E025E04BFBEF33333354F84B441025A3
:10027300E0F5D722901DFFE49364F37029E582151E
:100283008270021583E493B4321CE58215827002F6
:100293001583E493B4BC0FE582158270021583E4E1
:1002A30093B48702D322C322750B01854C09854D74
:1002B30008854E0A12003DAF0A150AEF601AAF090E
:1002C300AE081203B27421250BF8A607050B050926
:1002D300E50970E3050880DF020005A2AF9201C2C1
:1002E300AF75FF8075EF028F828E8375B7A575B7E3
:1002F300F1438F0175FF8075EF02EDF0538FFEA27E
:100303000192AF22A2AF9201C2AF75FF8075EF02D7
:100313008F828E8375B7A575B7F1438F0375FF8001
:1003230075EF02E4F0538FFCA20192AF22854C09D2
:10033300854D0812003DAF09AE08120350500A1252
:100343000005AF09AE0802030712001D22D3EF9484
:10035300FFEE941D7D0050027D01C3EE94047F00E7
:1003630040027F01EF5DC36001D322AF885388AFA2
:10037300758C7F758AFF758BC8EF5440FEEF541060
:100383004E42882212006512002D12006C120035B5
:1003930012036E12039F1203D40203C4E5C854046C
:1003A30053C8FB75CBFF75CA3443C80442C822A2A5
:1003B300AF9201C2AF8F828E83E493FFA20192AF0B
:1003C3002275D77E75D6FF75AC8053C1FC43C181BE
:0803D30022758E0D75892122AF
:10040000020C4775D7F075D6FF75AC8053C1FC431D
:07041000C18122E4F5A922DD
:10041800020A070207A5E86480F8E933E8336011A7
:100428000460F0ED33EC337009E8FCE9FDEAFEEB1B
:10043800FF220460DED3EB9FEA9EE99DE8C2E78CC9
:10044800F0C2F795F0400CE8CCF8E9CDF9EACEFA1D
:10045800EBCFFB12077085D0F05804700320D5B39A
:10046800E80470075002B2D50207AF92D5EC0460D9
:10047800F7E4CCC0E0C398F8603B94186008400DDE
:10048800D0E0FB020787E4FBFAC9FC8028E830E4E7
:1004980006E4C9FBE4CAFCE830E305E4C9CACBFCBE
:1004A800E854076010F8C3E913F9EA13FAEB13FBF1
:1004B800EC13FCD8F130F52FC3E49CFCEF9BFFEE66
:1004C8009AFEED99FDD0E0FBEF4E4D4C701222DB09
:1004D800030207ACEC2CFCEF33FFEE33FEED33FDEB
:1004E800ED30E7EB020787EF2BFFEE3AFEED39FD23
:1004F800D0E0FB50130BBB00030207AFED13FDEE7A
:1005080013FEEF13FFEC13FC020787EC4D6011E8B4
:10051800497017ED33EC3304600DE4FCFFFEFD2257
:10052800E933E8330470F80207A51207705804602D
:1005380009E4CC248150062850090207AF2840035B
:100548000207ACC0E0EB4A7044B98006D0E0FB0279
:10055800079BEF4E701CBD8008EBFFEAFEE9FD80AB
:10056800EBE98DF0A4FEE5F00205FCE9CDF9EAFE21
:10057800EBFFEF89F0A4FCE5F0CE89F0A42EFFE4B0
:1005880035F0CD89F0A42DFEE435F08067EF4E708C
:1005980005BD80D780C3EF8BF0A4ACF0EE8BF0A440
:1005A8002CFCE435F0F8EF8AF0A42CE5F038FCE4F4
:1005B80033CB8DF0A42CFCE5F03BF8EE8AF0A42CAC
:1005C800FCE5F038F8E433CF89F0A42CFCE5F038EA
:1005D800CF3400CE89F0A42FFFE5F03EFEE433C906
:1005E8008DF0A42EFEE5F039CD8AF0A42FFFE5F0BA
:1005F8003EFEE43DFD33D0E0FB50070BBB000F028D
:1006080007AFEC2CFCEF33FFEE33FEED33FD0207B2
:10061800870207AFEC5D046005E859047003020720
:10062800A5120770580460F6EC4860F2EC7004FDFF
:10063800FEFF22C860DB2481C85009C398600250BD
:10064800060207AC9850CAF582E9294B4A7005ABF7
:100658008202079B75F0007C1A7880C3EF9BEE9AA4
:10066800ED99400DC3EF9BFFEE9AFEED99FDE84230
:10067800F0DC23ACF0D0E0FFD0E0FED0E0FDAB82B0
:1006880020E7101BEB60BAEC2CFCEF33FFEE33FED7
:10069800ED33FD020787E803F830E705C0F075F091
:1006A80000EF2FFFEE33FEED33FD40B830E7C28098
:1006B800AA74F8CC6480CCC86480C8F58204604F02
:1006C800C3EB9FF5F0EA9E42F0E99D42F0E89C45B5
:1006D800F0603C501DE5825FFFE582D313CB5BCB16
:1006E800F42B5582FB50280ABA002409B9002008C7
:1006F800801DE5825BFBE582D313CF5FCFF4C31384
:100708002F5582FF50090EBE00050DBD00010CC318
:10071800EB9FF5F0EA9E42F0E99D42F0E89C45F037
:100728006007CC4820E701B3EC2275F020800E75F5
:10073800F010800575F0087D007E007F003392D5AB
:1007480030D50312089AEC334010EF33FFEE33FE36
:10075800ED33FDEC33FCD5F0ED22E5F0247EA2D597
:1007680013CC92E7CDCEFF22E9D2E7C933E833F8BC
:1007780092D5EDD2E7CD33EC33FC5002B2D522EC62
:1007880030E7100FBF000C0EBE00080DBD00040BB3
:10079800EB6014A2D5EB13FCED92E7FD2274FFFC8D
:1007A800FDFEFF22E480F8A2D574FF13FC7D80E4EF
:1007B80080EFEF8DF0A4A8F0CF8CF0A428CE8DF0B8
:1007C800A42EFE2275F008758200EF2FFFEE33FE8F
:1007D800CD33CDCC33CCC58233C5829BED9AEC9911
:1007E800E58298400CF582EE9BFEED9AFDEC99FCB3
:1007F8000FD5F0D6E4CEFBE4CDFAE4CCF9A88222FA
:10080800B800C1B90059BA002DEC8BF084CFCECD19
:10081800FCE5F0CBF97818EF2FFFEE33FEED33FD52
:10082800EC33FCEB33FB10D703994004EB99FB0F37
:10083800D8E5E4F9FA227818EF2FFFEE33FEED330E
:10084800FDEC33FCC933C910D7059BE99A4007EC86
:100858009BFCE99AF90FD8E0E4C9FAE4CCFB2275CD
:10086800F010EF2FFFEE33FEED33FDCC33CCC83361
:10087800C810D7079BEC9AE899400AED9BFDEC9AC3
:10088800FCE899F80FD5F0DAE4CDFBE4CCFAE4C83B
:10089800F922C3E49FFFE49EFEE49DFDE49CFC2254
:1008A800D083D082F8E4937012740193700DA3A3DF
:1008B80093F8740193F5828883E4737402936860F3
:1008C800EFA3A3A380DF8F08E508B4020BE5347516
:1008D8000A00F509E5328009E533750A00F509E5EE
:1008E80031420AE509C313F509E50A13F50AAC090B
:1008F800AD0AE4120737E4FBFA79C9784312051305
:10090800E4FBFAF9784712061C8F0E8E0D8D0C8CBD
:100918000BE508B4020A8F3C8E3B8D3A8C39800F68
:10092800AE0DAD0CAC0B850E388E378D368C35750B
:10093800129A751119751016750F437516CD751520
:100948000C7514AF751343E4F51BAF12AE11AD105F
:10095800AC0F120B3B8F1A8E198D188C17AF0EAE79
:100968000DAD0CAC0BAB1AAA19A918A8171206B929
:1009780060174015AF12AE11AD10AC0FAB16AA152B
:10098800A914A81312041E8028AF0EAE0DAD0CAC2E
:100998000BAB1AAA19A918A8171206B9501BAF123F
:1009A800AE11AD10AC0FAB16AA15A914A8131204FA
:1009B800228F128E118D108C0FAF16AE15AD14ACA0
:1009C80013E4FBFAF9784012061C8F168E158D1465
:1009D8008C13051BC3E51B648094945003020952D1
:1009E800E508AE11AD10AC0FB4020A85122A8E29A3
:1009F8008D288C27228512268E258D248C2322C0B3
:100A0800E0C083C082C0D075D000C00020C278E5A5
:100A1800C054F0602B24F0604624D0604824F06075
:100A28005A2430705AC2C5754501754601E5C23071
:100A3800E00A742A2545F8E6F5C20545D2C1804D7D
:100A4800E546C39406743C500B2546F8A6C20546F5
:100A5800D2C180072546F8A6C2D2000547802EC21B
:100A6800C4D200802830C125E545D39406501E74B1
:100A78002A2545F8E6F5C205458012C2C4800E5302
:100A8800C17F43C1808000C2C5C2C4D2C1C2C020D8
:100A98000003020B30E53D1208A80ACA000ACF017C
:100AA8000AD4020AD9030AE60B0AE1100AEB320A51
:100AB800F9330B07340B15350B23380B2839000095
:100AC8000B2B75EF12805C752B018057752B0880F6
:100AD80052752B01752C01804A85482B8045752B52
:100AE80000804085232B85242C85252D85262E8066
:100AF8003285272B85282C85292D852A2E8024852B
:100B0800352B85362C85372D85382E801685392B43
:100B1800853A2C853B2D853C2E800885212B80032A
:100B280085222B754700C200D000D0D0D082D08358
:100B3800D0E0328F1F8E1E8D1D8C1CE4FFFEFDFC45
:100B4800AB1FAA1EA91DA81C1206B94003020BEE72
:100B5800E4FFFE7DC87CC2AB1FAA1EA91DA81C12FB
:100B680004227B347A2D7993782C120513AB1FAAB3
:100B78001EA91DA81C120513AB1FAA1EA91DA81C7F
:100B8800120513AB1FAA1EA91DA81C120513C00429
:100B9800C005C006C0077F7F7E057D1B7C35AB1F67
:100BA800AA1EA91DA81C120513AB1FAA1EA91DA8C1
:100BB8001C120513C004C005C006C0077F327E1191
:100BC8007D807C3BAB1FAA1EA91DA81C120513E43F
:100BD800FBFA7980783F120422D003D002D001D0EA
:100BE8000012041E80437F7F7E057D1B7C35AB1F72
:100BF800AA1EA91DA81C120513AB1FAA1EA91DA871
:100C08001C120513C004C005C006C0077F327E1140
:100C18007D807C3BAB1FAA1EA91DA81C120513E4EE
:100C2800FBFA7980783F120422D003D002D001D099
:100C38000012041EE4FBFA79C878421205132278E0
:100C48007FE4F6D8FD758148020C8E020CD3E4933C
:100C5800A3F8E493A34003F68001F208DFF48029A7
:100C6800E493A3F85407240CC8C333C4540F442096
:100C7800C8834004F456800146F6DFE4800B010285
:100C8800040810204080900F56E47E019360BCA3B6
:100C9800FF543F30E509541FFEE493A360010ECFD3
:100CA80054C025E060A840B8E493A3FAE493A3F8FD
:100CB800E493A3C8C582C8CAC583CAF0A3C8C582BD
:100CC800C8CAC583CADFE9DEE780BE120E5F120E0E
:100CD800F6C2A0D2A07D077F01120E0A8F21E4FD83
:100CE8007F01120E0AEF4402FBE4FD7F01120E356C
:100CF8007F01120D857F011208CEC2A07D077F01FA
:100D0800120E0A8F22E4FD7F02120E0AEF4402FB44
:100D1800E4FD7F02120E357F02120D857F02120854
:100D2800CE120D357F147E00120E8680A6E4F50BD8
:100D3800F50AF509F508FBD2EC30EDFDC2EDAFBDC3
:100D4800AEBEE4FCFDE50B2FF50BE50A3EF50AED1A
:100D58003509F509EC3508F5080BBB10DAE50B2465
:100D68008DFFE50A348AFEE50934FFFDE50834FF06
:100D7800FCE47B71FAF9F81208088F4822AB07BB2C
:100D88000204C2868002C2907F01120EA875A301D8
:100D980030FFFDC2FFE4F5A330FFFDC2FFBB020533
:100DA80085A334800385A333E4F5A330FFFDC2FF98
:100DB800BB020585A332800385A331D290D2867FFA
:100DC8000A020EA8209604E4FC80027C0120950407
:100DD800E4FD80027D01209404E4FE80027E01206F
:100DE8009304E4FF80027F01ED25E04CFBEE25E053
:100DF80025E04BFBEF33333354F84B441025E0F533
:100E0800D722AB05BF0204C2868002C2907F0112BE
:100E18000EA88BA330FFFDC2FFE4F5A330FFFDC28F
:100E2800FFD290D2867F0A120EA8AFA322AA05BFCE
:100E38000204C2868002C2907F01120EA8EA448092
:100E4800F5A330FFFDC2FF8BA330FFFDC2FFD29098
:100E5800D2867F0A020EA8120F33120F3A120F41E0
:100E6800120F48120F05120F5C120413120EC7124C
:100E78000F1F120F4F120403120F12020F298E8335
:100E88008F82E5821582AE83700215834E6010E46E
:100E9800FBEBC3940A50EB7F64120EA80B80F2227E
:100EA800C2CAC2CF7E007C007D181207BAC3E49F75
:100EB800FFE49EF5CD8FCCD2CA30CFFDC2CA22AF97
:100EC800885388AF758C7F758AFF758BC8EF54403F
:100ED800FEEF54104E428822D290D2867BC0E4FDA9
:100EE8007F01120E357BC0E4FD7F02020E35120D24
:100EF800CC120EE075A601E4F521F5222275BB108F
:100F080075BCF175B38143E8C02275A20943A1708D
:100F180053F8F343F80122E5C8540453C8FB42C808
:100F28002275E60175F30175A880227597DE75971D
:100F3800AD2275A44575D4E02275A50175D57F222B
:100F480075E34075E10622758E1D758921220147DA
:080F580000C1000075D11C224C
:0B1DF5001001010104390787BC32F324
:00000001FF
